:04000000EFEF0FF01F
:08000800046ED8CF05F0E0CF33
:1000100006F00001E9CF0CF0EACF07F0E1CF08F0DD
:10002000E2CF09F0D9CF0AF0DACF0BF0F3CF12F01C
:10003000F4CF13F0FACF14F0F5CF15F0F6CF16F099
:10004000F7CF17F000C00EF001C00FF002C010F0A3
:1000500003C011F0F2AA30EF00F0F2B4E2EF00F0CA
:10006000F2A836EF00F0F2B25EEF01F09DA43CEF93
:1000700000F09EB463EF00F00EC000F00FC001F07E
:1000800010C002F011C003F00CC0E9FF07C0EAFF86
:10009000078E08C0E1FF09C0E2FF0AC0D9FF0BC00C
:1000A000DAFF12C0F3FF13C0F4FF14C0FAFF15C04B
:1000B000F5FF16C0F6FF17C0F7FF045006C0E0FFBB
:1000C00005C0D8FF1000F29CF29EF2BEFDD77C5016
:1000D000BE5CD26F7D50BF58D36F2A5021080BE30E
:1000E000D3514D080BE2FF0A03E1D251200806E28A
:1000F0002A50020803E22A6A2B8014D0D8902A34AE
:10010000036A2C0FE96E000E0320EA6ED3C0ECFFE9
:10011000ED52D2C0EFFF2A2ABFCF7DF0BECF7CF0D8
:10012000C00EF2129E943CEF00F0D551016AD45DEE
:1001300003E2D4C000F00CD0006A080ED66FD437AA
:100140000036D551005CD8B0006E0136D62FF7D7F7
:10015000000CD451070B006ED431016E0132013214
:100160001F0E01160150D525E96E000ED621EA6E4C
:10017000EFCF01F0002A01D00132002EFDD7000C94
:10018000016A026A006A036AD95102E1D85118E093
:10019000100EDA6FD890D637D73700360336D951DC
:1001A000035C02E1D851005C07E3D851005ED8A09F
:1001B0000306D951035ED88001360236DA2FEAD71A
:1001C00056EF01F0D36B200ED26F80A104D0030E46
:1001D000D36FE80ED26F26522AE1275228E1939A74
:1001E0008A9A7FC0D4F00A0ED56F9FDF036A015050
:1001F0001A0FE96E000E0320EA6EEFCFD4F0926A78
:10020000D4C089FF7FC0D4F00A0ED56F8EDF01C045
:10021000D4F0D66B240ED56F9CDF000E01B0010E1A
:100220009690969296948D6E93988A8831D0D890B5
:10023000D331036ED231026E265C2AE10350275C73
:1002400027E193988A987FC0D4F00A0ED56F6DDFAE
:10025000036A00501A0FE96E000E0320EA6EEFCF1A
:10026000D4F0926AD4C089FF7FC0D4F00A0ED56F53
:100270005CDF00C0D4F0D66B240ED56F6ADF000EB1
:1002800001B0010E9690969296948D6E939A8A8AFA
:10029000010E2624D46F000E2720D56FD76FD4C04F
:1002A000D6F0D3C0D9F0D2C0D8F06AD700C026F0BB
:1002B00003C027F02B88F2943CEF00F0F29895965B
:1002C0008C967F6AF2923CEF00F064656661756C13
:1002D00074004368616E6E656C2073656C65637451
:1002E000205374617465000054756E696E67205305
:1002F00074617465000055702072656C656173658A
:100300006400446F776E2072656C6561736564008C
:1003100095948C8495968C9694988B8895908C80E7
:1003200095928C82949A8B8A48EF10F0EA6A980E24
:10033000E96EEF500EE0030E016E006A002EFED74C
:10034000012EFBD73C0E006E002EFED700D0EF2E04
:10035000F2D7000C95968C86976B962D14D09498B6
:100360008B88976B9551975D0DE2949A8B9A010E4D
:10037000986FDCDF949A8B8A7E2A29C098F0D6DFAA
:10038000972BF0D713D094988B98976B9551975DD6
:100390000DE2949A8B9A010E986FC8DF949A8B8A1B
:1003A0007E0629C098F0C2DF972BF0D795968C96E1
:1003B000000C0900F5520DE0F6CF8EF0F7CF8FF06C
:1003C000F5509EA8FED7AD6E8EC0F6FF8FC0F7FF2A
:1003D000F0D7000C83C0A9FF84C0A8FFA69CA69EEE
:1003E000A684F250006EF29E0F01550EA76EAA0E63
:1003F000A76EA682A6B2FED7A6940050F212000104
:100400000EEF02F080A10ED0D20EF66E020EF76E45
:10041000D0DF7FC083F07EC084F0DCD780919596DA
:100420008C9608D0E80EF66E020EF76EC2DF808161
:1004300095968C86E6EF02F0F2CF91F0F29E90C096
:10044000A9FFA69CA69EA680A85091BFF28E016E21
:10045000A9EF02F00150196AF2BE198EF29E90C007
:10046000D4F0640ED56F61DE19BEF28E00C090F03C
:100470000150300E07E191A30DD091B70BD091B987
:10048000200E03D0919791999181012601509EA849
:10049000FED7AD6E196AF2BE198EF29E90C0D4F0EE
:1004A0000A0ED56F42DE19BEF28E00C090F00150E8
:1004B000300E06E191B709D091A107D091B9200E75
:1004C000012601509EA8FED7AD6E300E90279051A8
:1004D0009EA8FED7AD6E000C926B936B90C094F00B
:1004E000010E9427922B9151945D01E101D0F8D730
:1004F00090C094F09407932B9151945D01E101D049
:10050000F9D79351925D06E292C095F0010E966F75
:1005100021DF04D093C095F0966B1CDFC2EF02F090
:10052000410EA96E8EC0A8FFA69CA69EA684F2507E
:10053000006EF29E0F01550EA76EAA0EA76EA68240
:10054000A6B2FED7A6940050F2128EC090F0000121
:1005500073D701C08FF08FC090F01B0E916F7ADFC0
:100560000A0E9EA8FED7AD6E7EC090F01B0E916F56
:1005700071DF0A0E9EA8FED7AD6E7EC090F08FC0D0
:1005800091F0AAD78EC07FF0000CF60EF66E020E28
:10059000F76E0FDF010E7F24836F8E6FC1DFFEEFDA
:1005A00002F0020EF66E030EF76E03DF010E7F5CA3
:1005B000836F8E6FB5DF04EF03F0958A829183BA63
:1005C000828182B103D02BAA01D01CD780A109D08F
:1005D00095882B9483B82B84958C2B9683BC2B8683
:1005E00019D09588829383B88283958C829583BC39
:1005F000828582B304D02BAC02D0C7D705D082B598
:1006000003D02BAE01D0CDD72B9C82B32B8C2B9E4D
:1006100082B52B8E2B9A82B12B8A50EF10F0836B10
:10062000822D0ED094988B88949A8B9A010E986F95
:100630007DDE949A8B8A7E2A29C098F077DE0DD0D1
:1006400094988B98949A8B9A010E986F6FDE949A77
:100650008B8A7E0629C098F069DE320E986F66DEBE
:10066000000C8E51070B006E8E31016E013201328B
:100670001F0E011601509025E96E000E9121EA6EC1
:10068000016A012A002A01D00136002EFDD78F53BE
:1006900003E00150EF1203D0011E0150EF16000CD1
:1006A0008E0E006EC3C001F0C2C002F0036A015298
:1006B00009E102C001F0026A080E005E015202E187
:1006C000006A08D0D89001BE04D002360136000678
:1006D000F9D7019E000CBFC0C6F0C351C61BC6AF00
:1006E00005D0D894D890BFBFD8802FD0BFC0C6F057
:1006F000C2C0C7F0BE51C75F06E0C6AF26D0D85013
:10070000010AD86E22D0C3C0C7F0BF51C75F06E050
:10071000C6AF1BD0D850010AD86E17D0C4C0C7F0DE
:10072000C051C75F06E0C6AF10D0D850010AD86EDE
:100730000CD0C5C0C7F0C151C75F06E0C6AF05D039
:10074000D850010AD86E01D0D890000CB751D8B457
:10075000A5D0C36FBB51D8B4A1D0C35F05E37F0E52
:10076000C327D8B09BD006D0810EC35FD8A096D047
:10077000D8B494D0C3C000F0016A026A036AC26BA5
:10078000B8C0C1F0C18FB9C0C0F0BAC0BFF0190E77
:10079000C36FBE51BF5F0DE2010EC05F0AE2C15FD1
:1007A00008E2C25F06E2C22BC12BC02BBE51BF279D
:1007B00028D0BD51C05F12E2010EC15F0FE2C25FDF
:1007C0000DE2C22BC12BBD51C027BE51BF2719E37B
:1007D000C02B17E1C12B15E1C22B13D0BC518009EE
:1007E000C15F0EE2010EC25F0BE2C22BBC51800959
:1007F000C127BD51C027E9E3C12BE7E1C22BE5D7F3
:100800000380C32F01D00BD0D890BF37C037C1377A
:10081000C237D890033602360136C437BAD7C4A1DE
:1008200006D0D890013202320332C43302D000061F
:1008300035E0C4BF1ED0D890BF37C037C137C237EC
:10084000BE51BF5F07E2010EC05F04E2C15F02E27A
:10085000C25F1AE3BD51C05F05E2010EC15F02E253
:10086000C25F12E3BC518009C15F03E2010EC25FA7
:100870000BE3032A09E1022A07E1012A05E1002A24
:100880000DE0013202320332B8C0C3F0BC51C31BC9
:10089000C3AF02D0018E06D0019E04D0006A016A67
:1008A000026A036A000C8E0E006EBE51005EBFC06D
:1008B00002F0C0C001F0028E005209E0D89002524E
:1008C00002E1015204E002320132002EF7D7BFAF3D
:1008D00005D0011E021E012AD8B4022A000CBE5106
:1008E000D8B471D0006EC251D8B46DD0002604E3E4
:1008F000810E002668E204D07F0E005E64E363E0B0
:10090000BFC0C6F0C351C61BBF8FC38FC151C50343
:10091000F4CFC8F0C051C403F4CF03F0F3CFC7F055
:10092000C503F350C827F450C723000E0322C1515A
:10093000C403F350C827F450C723000E026A0322F1
:100940000222BF51C503F350C727F4500322000E03
:100950000222BF51C403F3500326F4500222000EBA
:10096000016A0122C151C303F350C727F450032287
:10097000000E02220122C051C303F3500326F4509B
:100980000222000E0122BF51C303F3500226F4508D
:100990000122002A01BE05D0C737033602360136D0
:1009A0000006000EC7AF0AD0032A0222012201501E
:1009B00005E1025003E1035001E1002AC6BF018EA8
:1009C000C6AF019E04D0006A016A026A036A000C85
:1009D000800ED8B2C71BCC6BCD6BC3C0CBF0C75158
:1009E000CB1BC251D8B4DCD0CA6F006EC651D8B48C
:1009F000E0D0CA5FD8B481D03DE3C7C0D0F0D08F7B
:100A0000C8C0CFF0C9C0CEF0CD6BD890D033CF33B3
:100A1000CE33CD33CA2FF8D7CBAF03D0CC81DDD0C6
:100A2000CC91CA91CC89EA6AC50EE96EE9D0CC991D
:100A3000CBBF0AD0CAA113D0D033CF33CE33CD33FE
:100A4000002AD8B4C5D00BD0D0BF0CD0D890CD37A9
:100A5000CE37CF37D0370006D8B4BAD0F5D7CC8D43
:100A60006BD0CC9DC3C0CBF0C3AF02D0D08FA9D088
:100A7000D09FA7D0C6C0CAF0C6C000F0C251CA5F9E
:100A8000C3C0D0F0D08FC4C0CFF0C5C0CEF0CD6B06
:100A9000D890D033CF33CE33CD33CA2FF8D7CBAFA6
:100AA00003D0CC839AD0CC93CA91CC8BEA6AC90E7E
:100AB000E96EA6D0CC9BCBBF0AD0CAA113D0D0334D
:100AC000CF33CE33CD33002AD8B482D00BD0D0BFB1
:100AD0000CD0D890CD37CE37CF37D0370006D8B42A
:100AE00077D0F5D7CC8F28D0CC9FC7C0CBF0C7AF7D
:100AF00002D0D08F66D0D09F64D0C7C0D0F0D08F46
:100B0000C8C0CFF0C9C0CEF0CBAF04D0D09FCC8549
:100B100064D0CC95CD6BCA91EA6AC50EE96E70D0EF
:100B2000CBBF1CD0C3C0CBF0CAA106D0D033CF33CB
:100B3000CE33CD33002A4CE0CDAF0BD0CE2B09E124
:100B4000CF2B07E1D02B05E1D033CF33CE33002AB2
:100B50003FE0CCBD86D7CCBFC7D71CD0800ED01B02
:100B6000D0AF04D03AD0C7C0CBF00AD0C3C0CBF0CE
:100B7000D05306E1CF5304E1CE5302E1006A21D005
:100B8000D0BF08D0D890CD37CE37CF37D037002E52
:100B9000F7D71ED0CBAF02D0D08F13D0D09F11D0BB
:100BA000C6C000F0C7C0D0F0C8C0CFF0C9C0CEF0FA
:100BB00008D0C2C000F0C3C0D0F0C4C0CFF0C5C0E0
:100BC000CEF0D0C001F0CFC002F0CEC003F034D0E0
:100BD000006A016A026A036A2FD0CD6BCE1FCF1F55
:100BE000D01FCD1FCD2B05E1CE2B03E1CF2B01E193
:100BF000D02BCCB115D7CCB356D7CCB58AD7B3D779
:100C0000EF50CE2705E3CF2B03E1D02BD8B4CA8118
:100C1000ED52EF50CF2703E3D02BD8B4CA81ED5269
:100C2000EF50EFBE01D0800AD027D8B0CA81CCB92E
:100C3000FED6CCBB3FD774D7000CBD91B1C0B6F087
:100C4000B0C0B5F0AFC0B4F0AEC0B3F0B1C0C1F049
:100C5000B0C0C0F0AFC0BFF0AEC0BEF0C56BC46BDB
:100C6000C36BC26B38DD04E3BD81B451800AB46F3D
:100C7000B6C0C1F0B5C0C0F0B4C0BFF0B3C0BEF0E4
:100C8000C56BC46BC36B8E0EC26F25DD01E217E12D
:100C9000B6C0C1F0B5C0C0F0B4C0BFF0B3C0BEF0C4
:100CA00002DE02C0C3F001C0C2F0FADC03C0BAF039
:100CB00002C0B9F001C0B8F000C0B7F0BDD0B6C0F6
:100CC000C1F0B5C0C0F0B4C0BFF0B3C0BEF0800E7C
:100CD000C56F960EC46F180EC36F960EC26FFBDC05
:100CE000D8A0A2D0B6C0C1F0B5C0C0F0B4C0BFF0AB
:100CF000B3C0BEF0C56BC46BC36B700EC26FEFDDCB
:100D000003C0C1F002C0C0F001C0BFF000C0BEF01F
:100D1000CADD02C0BCF001C0BBF0B6C0C1F0B5C0B6
:100D2000C0F0B4C0BFF0B3C0BEF0C56BC46BC36B42
:100D3000700EC26FD4DD00C0BEF001C0BFF002C0B3
:100D4000C0F003C0C1F0BCC0C3F0BBC0C2F0A8DC9F
:100D5000D882C1C0C5F0C0C0C4F0BFC0C3F0BEC01F
:100D6000C2F003C0C9F002C0C8F001C0C7F000C0A3
:100D7000C6F02EDEC16BC06BBF6B8E0EBE6F03C0A4
:100D8000C5F002C0C4F001C0C3F000C0C2F0A7DDCE
:100D900003C0B6F002C0B5F001C0B4F000C0B3F0BB
:100DA000BCC0C3F0BBC0C2F07BDCC16BC06BBF6B0F
:100DB0008E0EBE6F03C0C5F002C0C4F001C0C3F008
:100DC00000C0C2F08CDD03C0BAF002C0B9F001C0AF
:100DD000B8F000C0B7F0B6C0C1F0B5C0C0F0B4C044
:100DE000BFF0B3C0BEF05FDD02C0C3F001C0C2F00F
:100DF00057DCD892BAC0C5F0B9C0C4F0B8C0C3F0CF
:100E0000B7C0C2F003C0C9F002C0C8F001C0C7F04B
:100E100000C0C6F0DDDD03C0BAF002C0B9F001C009
:100E2000B8F000C0B7F008D0B6C0BAF0B5C0B9F09D
:100E3000B4C0B8F0B3C0B7F0B6C0C1F0B5C0C0F030
:100E4000B4C0BFF0B3C0BEF02EDD02C0C3F001C01D
:100E5000C2F026DCD882B6C0C5F0B5C0C4F0B4C0BC
:100E6000C3F0B3C0C2F003C0C9F002C0C8F001C0F3
:100E7000C7F000C0C6F0ACDD03C0B6F002C0B5F0EC
:100E800001C0B4F000C0B3F0BDA103D0B851800AD6
:100E9000B86FB6C0C1F0B5C0C0F0B4C0BFF0B3C049
:100EA000BEF0C56BC46BC36BC26B15DC36E0BDA175
:100EB00019D0B25317E1D882BAC0C5F0B9C0C4F096
:100EC000B8C0C3F0B7C0C2F0C96BC86BC76B7F0EA8
:100ED000C66F7EDD03C0BAF002C0B9F001C0B8F041
:100EE00000C0B7F0BDB119D0B22D17D0D892BAC09A
:100EF000C5F0B9C0C4F0B8C0C3F0B7C0C2F0C96B88
:100F0000C86BC76B7F0EC66F63DD03C0BAF002C04B
:100F1000B9F001C0B8F000C0B7F0B1C0C1F0B0C0C6
:100F2000C0F0AFC0BFF0AEC0BEF0C56BC46BC36B4A
:100F3000C26B6BEC03F004E1BA6BB96BB86BB76BC7
:100F4000B7C000F0B8C001F0B9C002F0BAC003F0F9
:100F5000000CADC0B1F0ACC0B0F0ABC0AFF0AAC0F7
:100F6000AEF0010EB26F69DE1EEF08F0ADC0B1F059
:100F7000ACC0B0F0ABC0AFF0AAC0AEF0B26B5DDEFB
:100F800042EF08F0A1C0C1F0A0C0C0F09FC0BFF008
:100F90009EC0BEF0C56BC46BC36BC26B6BEC03F041
:100FA000D8B49DD09DC0BAF09CC0B9F09BC0B8F039
:100FB0009AC0B7F0A1C0BEF0A0C0BDF09FC0BCF009
:100FC0009EC0BBF0A6EC03F000C0A6F001C0A7F0E5
:100FD00002C0A8F003C0A9F003C0C1F002C0C0F075
:100FE00001C0BFF000C0BEF0C56BC46BC36BC26B69
:100FF0006BEC03F024E39DC0BAF09CC0B9F09BC039
:10100000B8F09AC0B7F0A1C0BEF0A0C0BDF09FC0BC
:10101000BCF09EC0BBF0A6EC03F000C0A6F001C07F
:10102000A7F002C0A8F003C0A9F003C0ADF002C051
:10103000ACF001C0ABF000C0AAF08BD723D09DC0AC
:10104000BAF09CC0B9F09BC0B8F09AC0B7F0A1C08C
:10105000BEF0A0C0BDF09FC0BCF09EC0BBF0A6EC2F
:1010600003F000C0A6F001C0A7F002C0A8F003C0C2
:10107000A9F003C0ADF002C0ACF001C0ABF000C0FD
:10108000AAF074D703C0A5F002C0A4F001C0A3F079
:1010900000C0A2F0A5C0C1F0A4C0C0F0A3C0BFF0C2
:1010A000A2C0BEF0A1C0C5F0A0C0C4F09FC0C3F0F4
:1010B0009EC0C2F014DCD8829DC0C5F09CC0C4F0B4
:1010C0009BC0C3F09AC0C2F003C0C9F002C0C8F010
:1010D00001C0C7F000C0C6F07BDC01D000D0000C1E
:1010E0008E0E006EB5C001F0B4C002F0036AB5AF59
:1010F00005D0011E021E022A01E1012A015209E166
:1011000002C001F0026A080E005E015202E1006AAC
:101110000AD0D89001BE04D0023601360006F9D7B5
:10112000B5BF01D0019E000CA1C0A5F0A0C0A4F0E5
:101130009FC0A3F09EC0A2F0A5C0C1F0A4C0C0F0A3
:10114000A3C0BFF0A2C0BEF0C56BC46BC36B7F0E63
:10115000C26F6BEC03F0D8B428D2B46BA20EE96E68
:10116000B4C0EAFF7E0EEF6ED882A5C0C5F0A4C061
:10117000C4F0A3C0C3F0A2C0C2F0C96BC86BC76BF8
:101180007F0EC66F25DC00C0B3F001C0B4F002C012
:10119000B5F003C0B6F0D892A5C0C5F0A4C0C4F0A5
:1011A000A3C0C3F0A2C0C2F0C96BC86BC76B7F0EEF
:1011B000C66F0EDCB6C0BAF0B5C0B9F0B4C0B8F0B6
:1011C000B3C0B7F003C0BEF002C0BDF001C0BCF0B8
:1011D00000C0BBF0A6EC03F003C0A5F002C0A4F071
:1011E00001C0A3F000C0A2F0A5C0C1F0A4C0C0F02F
:1011F000A3C0BFF0A2C0BEF0A5C0C5F0A4C0C4F09B
:10120000A3C0C3F0A2C0C2F06FEC04F003C0B1F001
:1012100002C0B0F001C0AFF000C0AEF0BC0EC16FB4
:10122000240EC06F670EBF6F7D0EBE6FB1C0C5F0DC
:10123000B0C0C4F0AFC0C3F0AEC0C2F06FEC04F0F9
:1012400000C0B3F001C0B4F002C0B5F003C0B6F006
:10125000D89203C0C5F002C0C4F001C0C3F000C002
:10126000C2F0E30EC96FE40EC86F900EC76F820E16
:10127000C66FE8EC04F003C0A9F002C0A8F001C0FA
:10128000A7F000C0A6F0A9C0C1F0A8C0C0F0A7C0D8
:10129000BFF0A6C0BEF0B1C0C5F0B0C0C4F0AFC0D2
:1012A000C3F0AEC0C2F06FEC04F000C0B3F001C0F8
:1012B000B4F002C0B5F003C0B6F0D89203C0C5F0D8
:1012C00002C0C4F001C0C3F000C0C2F01C0EC96F60
:1012D000870EC86F570EC76F830EC66FE8EC04F019
:1012E00003C0A9F002C0A8F001C0A7F000C0A6F09A
:1012F000A9C0C1F0A8C0C0F0A7C0BFF0A6C0BEF092
:10130000B1C0C5F0B0C0C4F0AFC0C3F0AEC0C2F051
:101310006FEC04F000C0B3F001C0B4F002C0B5F04F
:1013200003C0B6F0D89203C0C5F002C0C4F001C03B
:10133000C3F000C0C2F0AB0EC96FE10EC86F9E0EC5
:10134000C76F830EC66FE8EC04F003C0A9F002C0BB
:10135000A8F001C0A7F000C0A6F0C16BC06BBF6BC6
:101360007F0EBE6FB1C0C5F0B0C0C4F0AFC0C3F057
:10137000AEC0C2F06FEC04F000C0B3F001C0B4F036
:1013800002C0B5F003C0B6F0D89203C0C5F002C0E9
:10139000C4F001C0C3F000C0C2F0B40EC96F2A0E81
:1013A000C86F820EC76FC66FE8EC04F003C0ADF0E3
:1013B00002C0ACF001C0ABF000C0AAF0ADC0C1F0FB
:1013C000ACC0C0F0ABC0BFF0AAC0BEF0B1C0C5F0A9
:1013D000B0C0C4F0AFC0C3F0AEC0C2F06FEC04F058
:1013E00000C0B3F001C0B4F002C0B5F003C0B6F065
:1013F000D89203C0C5F002C0C4F001C0C3F000C061
:10140000C2F0800EC96F3E0EC86F060EC76F830E06
:10141000C66FE8EC04F003C0ADF002C0ACF001C050
:10142000ABF000C0AAF0ADC0C1F0ACC0C0F0ABC022
:10143000BFF0AAC0BEF0B1C0C5F0B0C0C4F0AFC02C
:10144000C3F0AEC0C2F06FEC04F000C0B3F001C056
:10145000B4F002C0B5F003C0B6F0D89203C0C5F036
:1014600002C0C4F001C0C3F000C0C2F0AB0EC96F2F
:10147000E10EC86F9E0EC76F820EC66FE8EC04F0D7
:1014800003C0ADF002C0ACF001C0ABF000C0AAF0E8
:10149000A5C0C1F0A4C0C0F0A3C0BFF0A2C0BEF000
:1014A000A9C0C5F0A8C0C4F0A7C0C3F0A6C0C2F0D0
:1014B0006FEC04F000C0B3F001C0B4F002C0B5F0AE
:1014C00003C0B6F003C0BAF002C0B9F001C0B8F072
:1014D00000C0B7F0ADC0BEF0ACC0BDF0ABC0BCF05A
:1014E000AAC0BBF0A6EC03F003C0A9F002C0A8F0AC
:1014F00001C0A7F000C0A6F0B46B9E0EE96EB4C0A8
:10150000EAFF7E0EEF5CB26FB2BF01D012D0000EC8
:10151000D880B255B56BB46FB4BFB507E1DD00C07C
:10152000AAF00150800AAB6F02C0ACF003C0ADF06E
:101530000ED0B56BB2C0B4F0B4BFB507D1DD03C0F7
:10154000ADF002C0ACF001C0ABF000C0AAF0ADC07D
:10155000C1F0ACC0C0F0ABC0BFF0AAC0BEF0180E66
:10156000C56F720EC46F310EC36F7E0EC26F6FEC0B
:1015700004F0D892A9C0C5F0A8C0C4F0A7C0C3F0B9
:10158000A6C0C2F003C0C9F002C0C8F001C0C7F0D5
:1015900000C0C6F0E8EC04F003C0A9F002C0A8F057
:1015A00001C0A7F000C0A6F004D0A96BA86BA76B80
:1015B000A66BA6C000F0A7C001F0A8C002F0A9C0A9
:1015C00003F0000CA1C0C1F0A0C0C0F09FC0BFF0EC
:1015D0009EC0BEF03B0EC56FAA0EC46F380EC36F1F
:1015E0007F0EC26F6FEC04F003C0C1F002C0C0F008
:1015F00001C0BFF000C0BEF053EC04F001C0AEF07B
:10160000AF91A1C0A5F0A0C0A4F09FC0A3F09EC060
:10161000A2F0A1C0C1F0A0C0C0F09FC0BFF09EC0AA
:10162000BEF0C56BC46BC36BC26B6BEC03F005E320
:10163000AF81AE6DA351800AA36FA96BA86BA76B96
:10164000A66BB16BA60EE96EB1C0EAFF7F0EAE25A8
:10165000EF6EA5C0C1F0A4C0C0F0A3C0BFF0A2C08F
:10166000BEF03B0EC56FAA0EC46F380EC36F7F0E5F
:10167000C26F6FEC04F000C0B0F001C0B1F002C066
:10168000B2F003C0B3F0B56BAEC0B4F0B4BFB507F1
:1016900027DDD882B3C0C5F0B2C0C4F0B1C0C3F07A
:1016A000B0C0C2F003C0C9F002C0C8F001C0C7F0AA
:1016B00000C0C6F0E8EC04F003C0A5F002C0A4F03E
:1016C00001C0A3F000C0A2F07C0EC16F880EC06FF5
:1016D000590EBF6F720EBE6FA5C0C5F0A4C0C4F096
:1016E000A3C0C3F0A2C0C2F06FEC04F000C0B0F021
:1016F00001C0B1F002C0B2F003C0B3F0D89203C091
:10170000C5F002C0C4F001C0C3F000C0C2F0E00EDA
:10171000C96F970EC86F260EC76F750EC66FE8ECBF
:1017200004F003C0ADF002C0ACF001C0ABF000C0EB
:10173000AAF0ADC0C1F0ACC0C0F0ABC0BFF0AAC051
:10174000BEF0A5C0C5F0A4C0C4F0A3C0C3F0A2C041
:10175000C2F06FEC04F000C0B0F001C0B1F002C004
:10176000B2F003C0B3F0D89203C0C5F002C0C4F019
:1017700001C0C3F000C0C2F0C40EC96F1D0EC86F17
:101780001E0EC76F780EC66FE8EC04F003C0ADF014
:1017900002C0ACF001C0ABF000C0AAF0ADC0C1F017
:1017A000ACC0C0F0ABC0BFF0AAC0BEF0A5C0C5F0D1
:1017B000A4C0C4F0A3C0C3F0A2C0C2F06FEC04F098
:1017C00000C0B0F001C0B1F002C0B2F003C0B3F08D
:1017D000D89203C0C5F002C0C4F001C0C3F000C07D
:1017E000C2F05E0EC96F500EC86F630EC76F7A0EDF
:1017F000C66FE8EC04F003C0ADF002C0ACF001C06D
:10180000ABF000C0AAF0ADC0C1F0ACC0C0F0ABC03E
:10181000BFF0AAC0BEF0A5C0C5F0A4C0C4F0A3C06C
:10182000C3F0A2C0C2F06FEC04F000C0B0F001C081
:10183000B1F002C0B2F003C0B3F0D89203C0C5F05B
:1018400002C0C4F001C0C3F000C0C2F01A0EC96FDC
:10185000FE0EC86F750EC76F7C0EC66FE8EC04F005
:1018600003C0ADF002C0ACF001C0ABF000C0AAF004
:10187000ADC0C1F0ACC0C0F0ABC0BFF0AAC0BEF0FC
:10188000A5C0C5F0A4C0C4F0A3C0C3F0A2C0C2F0FC
:101890006FEC04F000C0B0F001C0B1F002C0B2F0D3
:1018A00003C0B3F0D89203C0C5F002C0C4F001C0B9
:1018B000C3F000C0C2F0180EC96F720EC86F310EAF
:1018C000C76F7E0EC66FE8EC04F003C0ADF002C037
:1018D000ACF001C0ABF000C0AAF0A5C0C1F0A4C03C
:1018E000C0F0A3C0BFF0A2C0BEF0ADC0C5F0ACC098
:1018F000C4F0ABC0C3F0AAC0C2F06FEC04F0D89241
:10190000C56BC46BC36B7F0EC26F03C0C9F002C04E
:10191000C8F001C0C7F000C0C6F0E8EC04F0A9C0F0
:10192000C1F0A8C0C0F0A7C0BFF0A6C0BEF003C001
:10193000C5F002C0C4F001C0C3F000C0C2F06FEC3B
:1019400004F003C0A9F002C0A8F001C0A7F000C0D5
:10195000A6F0AFA117D0BA6BB96BB86B7F0EB76F9B
:10196000A9C0BEF0A8C0BDF0A7C0BCF0A6C0BBF027
:10197000A6EC03F003C0A9F002C0A8F001C0A7F0D4
:1019800000C0A6F0A6C000F0A7C001F0A8C002F0F9
:10199000A9C003F0000C95C0C1F094C0C0F093C082
:1019A000BFF092C0BEF0C56BC46BC36BC26B6BEC77
:1019B00003F0D8A0CDD099C09DF098C09CF097C0FE
:1019C0009BF096C09AF0A16BA06B9F6B7F0E9E6FF1
:1019D000C2EC07F000C09AF001C09BF002C09CF07E
:1019E00003C09DF003C0C1F002C0C0F001C0BFF051
:1019F00000C0BEF0C56BC46BC36BC26B6BEC03F075
:101A0000D8A4A6D099C09DF098C09CF097C09BF038
:101A100096C09AF0A16BA06B9F6B800E9E6FC2EC7C
:101A200007F000C09AF001C09BF002C09CF003C018
:101A30009DF003C0C1F002C0C0F001C0BFF000C003
:101A4000BEF0C56BC46BC36BC26B6BEC03F03FE1C4
:101A500092C09AF09351800A9B6F94C09CF095C0FD
:101A60009DF095C0A1F094C0A0F09F6F92C09EF031
:101A700094EC08F000C09AF001C09BF002C09CF00A
:101A800003C09DF003C0C1F002C0C0F001C0BFF0B0
:101A900000C0BEF099C0C5F098C0C4F097C0C3F0B4
:101AA00096C0C2F06FEC04F000C09AF001C09BF049
:101AB00002C09CF003C09DF003C0A1F002C0A0F0E2
:101AC00001C09FF000C09EF07DDDD2D040D092C01A
:101AD0009AF09351800A9B6F94C09CF095C09DF042
:101AE00095C0A1F094C0A0F09F6F92C09EF094ECBE
:101AF00008F000C09AF001C09BF002C09CF003C047
:101B00009DF003C0C1F002C0C0F001C0BFF000C032
:101B1000BEF099C0C5F098C0C4F097C0C3F096C09D
:101B2000C2F06FEC04F000C09AF001C09BF002C05C
:101B30009CF003C09DF003C0A1F002C0A0F001C062
:101B40009FF000C09EF03EDD800E011A91D090D033
:101B500095C0C1F094C0C0F093C0BFF092C0BEF079
:101B6000C56BC46BC36BC26B6BEC03F02CE399C009
:101B70009DF098C09CF097C09BF096C09AF0A16B26
:101B8000A06B9F6B7F0E9E6FC2EC07F000C09AF0B7
:101B900001C09BF002C09CF003C09DF003C0C1F0E7
:101BA00002C0C0F001C0BFF000C0BEF0C56BC46B86
:101BB000C36BC26B6BEC03F006E0006A016A026A59
:101BC000036A56D055D095C0C1F094C0C0F093C000
:101BD000BFF092C0BEF0C56BC46BC36BC26B6BEC45
:101BE00003F010E199C0C1F098C0C0F097C0BFF0F9
:101BF00096C0BEF0C56BC46BC36BC26B6BEC03F0DD
:101C000001E236E195C0A1F094C0A0F093C09FF02E
:101C100092C09EF094EC08F000C09AF001C09BF0D6
:101C200002C09CF003C09DF003C0C1F002C0C0F030
:101C300001C0BFF000C0BEF099C0C5F098C0C4F0AC
:101C400097C0C3F096C0C2F06FEC04F000C09AF0E9
:101C500001C09BF002C09CF003C09DF003C0A1F046
:101C600002C0A0F001C09FF000C09EF0ABDC00D02D
:101C700042EF0FF08E519003F3CF01F0F4CF00F05C
:101C80009103F35000268F519003F3500020026E11
:101C900059EF0FF0EACF96F0E9CF95F08F39F009C0
:101CA000916F9127E20F926F320F946F8F510F0B4C
:101CB000922792279427E90F936F932793278E39C2
:101CC0000F0B9327942793379437941F94378E5193
:101CD0000F0B94279137070E906F0A0E93079427E6
:101CE000FDE392079327FDE391079227FDE3900719
:101CF0009127FDE3EA6A900EE96E070E9515959D12
:101D0000E926940EE95CD8B4958DEF50006E08E199
:101D100095BD06D095B90CD095B702D0200E03D052
:101D200095879599300E002600509EA8FED7AD6E7F
:101D3000EE5095ADE6D76BEF0FF0856B846B0F0E11
:101D4000866F876B886B886B88510F08D8A069D025
:101D5000120E8825896FD8908935036A2C0FE96E99
:101D6000000E0320EA6EECCF8FF0ED52EFCF8EF035
:101D70008F51030822E303E18E511F081EE3D89020
:101D80008935036A2C0FE96E000E0320EA6EECCF52
:101D900003F0ED52EFCF01F0035001080EE2FF0A0D
:101DA00003E10150580809E288C08EF08F6B916BF7
:101DB000820E906F31EC03F032D0D8908935036AEF
:101DC0002C0FE96E000E0320EA6EECCF8FF0ED527F
:101DD000EFCF8EF08F51050822E303E18E51DB082F
:101DE0001EE3D8908935036A2C0FE96E000E03209C
:101DF000EA6EECCF03F0ED52EFCF01F00350040890
:101E00000EE2FF0A03E10150140809E288C08EF0D7
:101E1000010E8F6F916B820E906F31EC03F0882B67
:101E200093D72B90876B87510F084AE3196AF2BE4C
:101E3000198EF29E87C0D4F0D66B820ED56FA9ECB6
:101E400000F019BEF28E8A6B01B08A2B8B6BC36BCC
:101E500086C0C2F050EC03F000C08EF001C08FF0DD
:101E600002C090F003C091F0956B946B936B800E61
:101E7000926F03C099F002C098F001C097F000C0C3
:101E800096F089D503C0C1F002C0C0F001C0BFF018
:101E900000C0BEF053EC04F002C08DF001C08CF025
:101EA0008BC08FF08AC08EF08DC091F08CC090F006
:101EB000E1D601508427025085238607872BB3D7AC
:101EC000200E9EA8FED7AD6E100EE96E85C08FF075
:101ED00084C08EF0DFD6200E9EA8FED7AD6E84C0E3
:101EE00000F08551036E03E1FF0E005C37E0800EC9
:101EF000035C03E17F0E005C39E0400E035C03E10C
:101F0000BF0E005C38E0C00E035C03E13F0E005CD6
:101F100037E0200E035C03E1DF0E005C36E0A00E2C
:101F2000035C03E15F0E005C35E0600E035C03E1DF
:101F30009F0E005C34E0E00E035C03E11F0E005CCA
:101F400033E0100E035C03E1EF0E005C32E0900E14
:101F5000035C03E16F0E005C31E035D08E6B90ECDA
:101F600002F0300E9EA8FED7AD6E34D0010E8E6FFB
:101F700090EC02F02FD0020E8E6F90EC02F02AD07F
:101F8000030E8E6F90EC02F025D0040E8E6F90EC55
:101F900002F020D0050E8E6F90EC02F01BD0060EE2
:101FA0008E6F90EC02F016D0070E8E6F90EC02F060
:101FB00011D0080E8E6F90EC02F00CD0090E8E6FCF
:101FC00090EC02F007D0CA0EF66E020EF76ED9EC56
:101FD00001F000D09E94C00EF21261EF10F0F86A8A
:101FE000D09E078EEA6AE96A400EAF6EA60EAC6E0E
:101FF000900EAB6E276A266A286A020E296E2A6A3C
:102000002B907D6A7C6A7E6A7F6A2B822B942B964A
:102010002B882B9A2B9C2B9E8091C180C182C184DE
:10202000C1961A6E2E0E1B6E010E1C6E080E1D6ED2
:102030002C0E1E6E180E1F6E100E206E0E0E216ED0
:10204000226A0C0E236E8E0E246E256AC20ED56E89
:10205000A50ECD6EB16A9484BD6A050EBD6EF28A7E
:10206000F2889D84C00EF212816B816B815127082A
:102070000DE3D8908135036A2C0FE96E000E032022
:10208000EA6EEC6AED52EF6A812BF0D788EF01F02F
:10209000FF0E956F010E966FAAEC01F0DDEF02F0D6
:1020A00080A10CD02BA405D0010E826F0FEC03F0A1
:1020B00005D02BA603D0826B0FEC03F02BA001D030
:0620C0003CD6ECD7030042
:020000040030CA
:0E00000000220D0E000181000FC00FE00F4026
:00000001FF
;PIC18F452
;CRC=D952  CREATED="13-Jan-12 01:25"
